{
  "_format": "hh-sol-artifact-1",
  "contractName": "VotingSystem",
  "sourceName": "contracts/VotingSystem.sol",
  "abi": [
    {
      "inputs": [],
      "stateMutability": "nonpayable",
      "type": "constructor"
    },
    {
      "anonymous": false,
      "inputs": [
        {
          "indexed": false,
          "internalType": "address",
          "name": "oldAdmin",
          "type": "address"
        },
        {
          "indexed": false,
          "internalType": "address",
          "name": "newAdmin",
          "type": "address"
        }
      ],
      "name": "AdminChanged",
      "type": "event"
    },
    {
      "anonymous": false,
      "inputs": [
        {
          "indexed": true,
          "internalType": "uint256",
          "name": "electionId",
          "type": "uint256"
        },
        {
          "indexed": false,
          "internalType": "string",
          "name": "name",
          "type": "string"
        },
        {
          "indexed": false,
          "internalType": "uint256",
          "name": "startTime",
          "type": "uint256"
        },
        {
          "indexed": false,
          "internalType": "uint256",
          "name": "endTime",
          "type": "uint256"
        }
      ],
      "name": "ElectionCreated",
      "type": "event"
    },
    {
      "anonymous": false,
      "inputs": [
        {
          "indexed": true,
          "internalType": "uint256",
          "name": "electionId",
          "type": "uint256"
        },
        {
          "indexed": false,
          "internalType": "uint256",
          "name": "candidateIndex",
          "type": "uint256"
        },
        {
          "indexed": false,
          "internalType": "bytes32",
          "name": "voterHash",
          "type": "bytes32"
        }
      ],
      "name": "VoteCast",
      "type": "event"
    },
    {
      "inputs": [],
      "name": "admin",
      "outputs": [
        {
          "internalType": "address",
          "name": "",
          "type": "address"
        }
      ],
      "stateMutability": "view",
      "type": "function"
    },
    {
      "inputs": [
        {
          "internalType": "uint256",
          "name": "_electionId",
          "type": "uint256"
        },
        {
          "internalType": "uint256",
          "name": "_candidateIndex",
          "type": "uint256"
        },
        {
          "internalType": "bytes32",
          "name": "_voterNINHash",
          "type": "bytes32"
        }
      ],
      "name": "castVote",
      "outputs": [],
      "stateMutability": "nonpayable",
      "type": "function"
    },
    {
      "inputs": [
        {
          "internalType": "address",
          "name": "newAdmin",
          "type": "address"
        }
      ],
      "name": "changeAdmin",
      "outputs": [],
      "stateMutability": "nonpayable",
      "type": "function"
    },
    {
      "inputs": [
        {
          "internalType": "string",
          "name": "_name",
          "type": "string"
        },
        {
          "internalType": "uint256",
          "name": "_startTime",
          "type": "uint256"
        },
        {
          "internalType": "uint256",
          "name": "_endTime",
          "type": "uint256"
        },
        {
          "internalType": "string[]",
          "name": "_candidateNames",
          "type": "string[]"
        },
        {
          "internalType": "string[]",
          "name": "_candidateParties",
          "type": "string[]"
        }
      ],
      "name": "createElection",
      "outputs": [],
      "stateMutability": "nonpayable",
      "type": "function"
    },
    {
      "inputs": [],
      "name": "currentElectionId",
      "outputs": [
        {
          "internalType": "uint256",
          "name": "",
          "type": "uint256"
        }
      ],
      "stateMutability": "view",
      "type": "function"
    },
    {
      "inputs": [
        {
          "internalType": "uint256",
          "name": "",
          "type": "uint256"
        }
      ],
      "name": "elections",
      "outputs": [
        {
          "internalType": "string",
          "name": "name",
          "type": "string"
        },
        {
          "internalType": "uint256",
          "name": "startTime",
          "type": "uint256"
        },
        {
          "internalType": "uint256",
          "name": "endTime",
          "type": "uint256"
        },
        {
          "internalType": "bool",
          "name": "exists",
          "type": "bool"
        }
      ],
      "stateMutability": "view",
      "type": "function"
    },
    {
      "inputs": [],
      "name": "getActiveElectionId",
      "outputs": [
        {
          "internalType": "uint256",
          "name": "",
          "type": "uint256"
        }
      ],
      "stateMutability": "view",
      "type": "function"
    },
    {
      "inputs": [
        {
          "internalType": "uint256",
          "name": "_electionId",
          "type": "uint256"
        },
        {
          "internalType": "uint256",
          "name": "_candidateIndex",
          "type": "uint256"
        }
      ],
      "name": "getCandidate",
      "outputs": [
        {
          "internalType": "string",
          "name": "name",
          "type": "string"
        },
        {
          "internalType": "string",
          "name": "party",
          "type": "string"
        },
        {
          "internalType": "uint256",
          "name": "votes",
          "type": "uint256"
        }
      ],
      "stateMutability": "view",
      "type": "function"
    },
    {
      "inputs": [
        {
          "internalType": "uint256",
          "name": "_electionId",
          "type": "uint256"
        }
      ],
      "name": "getElectionInfo",
      "outputs": [
        {
          "internalType": "string",
          "name": "name",
          "type": "string"
        },
        {
          "internalType": "uint256",
          "name": "startTime",
          "type": "uint256"
        },
        {
          "internalType": "uint256",
          "name": "endTime",
          "type": "uint256"
        },
        {
          "internalType": "bool",
          "name": "active",
          "type": "bool"
        },
        {
          "internalType": "uint256",
          "name": "candidateCount",
          "type": "uint256"
        }
      ],
      "stateMutability": "view",
      "type": "function"
    },
    {
      "inputs": [
        {
          "internalType": "uint256",
          "name": "_electionId",
          "type": "uint256"
        }
      ],
      "name": "getTotalVotes",
      "outputs": [
        {
          "internalType": "uint256",
          "name": "",
          "type": "uint256"
        }
      ],
      "stateMutability": "view",
      "type": "function"
    },
    {
      "inputs": [
        {
          "internalType": "uint256",
          "name": "_electionId",
          "type": "uint256"
        },
        {
          "internalType": "bytes32",
          "name": "_voterNINHash",
          "type": "bytes32"
        }
      ],
      "name": "hasVoted",
      "outputs": [
        {
          "internalType": "bool",
          "name": "",
          "type": "bool"
        }
      ],
      "stateMutability": "view",
      "type": "function"
    }
  ],
  "bytecode": "0x6080604052348015600f57600080fd5b50336000806101000a81548173ffffffffffffffffffffffffffffffffffffffff021916908373ffffffffffffffffffffffffffffffffffffffff160217905550600180819055506122ca806100666000396000f3fe608060405234801561001057600080fd5b50600436106100a95760003560e01c80638f283970116100715780638f2839701461018f5780639112c1eb146101ab57806398ecf2a0146101c7578063a089a766146101e5578063ce99b5df14610203578063f851a44014610237576100a9565b80632ce35e11146100ae5780634bd46448146100de5780635e6fef011461011057806374417bf4146101435780637504e5a014610173575b600080fd5b6100c860048036038101906100c391906111b1565b610255565b6040516100d591906111ed565b60405180910390f35b6100f860048036038101906100f39190611208565b610363565b604051610107939291906112d8565b60405180910390f35b61012a600480360381019061012591906111b1565b6105b9565b60405161013a9493929190611338565b60405180910390f35b61015d600480360381019061015891906113ba565b61067e565b60405161016a91906113fa565b60405180910390f35b61018d60048036038101906101889190611415565b610758565b005b6101a960048036038101906101a491906114c6565b6109e9565b005b6101c560048036038101906101c0919061170e565b610b89565b005b6101cf610f3a565b6040516101dc91906111ed565b60405180910390f35b6101ed610f40565b6040516101fa91906111ed565b60405180910390f35b61021d600480360381019061021891906111b1565b610fc1565b60405161022e9594939291906117dd565b60405180910390f35b61023f611143565b60405161024c9190611846565b60405180910390f35b6000600154821061029b576040517f08c379a0000000000000000000000000000000000000000000000000000000008152600401610292906118ad565b60405180910390fd5b60006002600084815260200190815260200160002090508060040160009054906101000a900460ff16610303576040517f08c379a00000000000000000000000000000000000000000000000000000000081526004016102fa906118ad565b60405180910390fd5b6000805b82600301805490508110156103585782600301818154811061032c5761032b6118cd565b5b90600052602060002090600302016002015482610349919061192b565b91508080600101915050610307565b508092505050919050565b606080600060015485106103ac576040517f08c379a00000000000000000000000000000000000000000000000000000000081526004016103a3906118ad565b60405180910390fd5b60006002600087815260200190815260200160002090508060040160009054906101000a900460ff16610414576040517f08c379a000000000000000000000000000000000000000000000000000000000815260040161040b906118ad565b60405180910390fd5b8060030180549050851061045d576040517f08c379a0000000000000000000000000000000000000000000000000000000008152600401610454906119ab565b60405180910390fd5b6000816003018681548110610475576104746118cd565b5b906000526020600020906003020190508060000181600101826002015482805461049e906119fa565b80601f01602080910402602001604051908101604052809291908181526020018280546104ca906119fa565b80156105175780601f106104ec57610100808354040283529160200191610517565b820191906000526020600020905b8154815290600101906020018083116104fa57829003601f168201915b5050505050925081805461052a906119fa565b80601f0160208091040260200160405190810160405280929190818152602001828054610556906119fa565b80156105a35780601f10610578576101008083540402835291602001916105a3565b820191906000526020600020905b81548152906001019060200180831161058657829003601f168201915b5050505050915094509450945050509250925092565b60026020528060005260406000206000915090508060000180546105dc906119fa565b80601f0160208091040260200160405190810160405280929190818152602001828054610608906119fa565b80156106555780601f1061062a57610100808354040283529160200191610655565b820191906000526020600020905b81548152906001019060200180831161063857829003601f168201915b5050505050908060010154908060020154908060040160009054906101000a900460ff16905084565b600060015483106106c4576040517f08c379a00000000000000000000000000000000000000000000000000000000081526004016106bb906118ad565b60405180910390fd5b60006002600085815260200190815260200160002090508060040160009054906101000a900460ff1661072c576040517f08c379a0000000000000000000000000000000000000000000000000000000008152600401610723906118ad565b60405180910390fd5b80600501600084815260200190815260200160002060009054906101000a900460ff1691505092915050565b600154831061079c576040517f08c379a0000000000000000000000000000000000000000000000000000000008152600401610793906118ad565b60405180910390fd5b60006002600085815260200190815260200160002090508060040160009054906101000a900460ff16610804576040517f08c379a00000000000000000000000000000000000000000000000000000000081526004016107fb906118ad565b60405180910390fd5b806001015442101561084b576040517f08c379a000000000000000000000000000000000000000000000000000000000815260040161084290611a77565b60405180910390fd5b8060020154421115610892576040517f08c379a000000000000000000000000000000000000000000000000000000000815260040161088990611ae3565b60405180910390fd5b806003018054905083106108db576040517f08c379a00000000000000000000000000000000000000000000000000000000081526004016108d2906119ab565b60405180910390fd5b80600501600083815260200190815260200160002060009054906101000a900460ff161561093e576040517f08c379a000000000000000000000000000000000000000000000000000000000815260040161093590611b4f565b60405180910390fd5b600181600501600084815260200190815260200160002060006101000a81548160ff021916908315150217905550806003018381548110610982576109816118cd565b5b906000526020600020906003020160020160008154809291906109a490611b6f565b9190505550837f96c313364ec07441c94195f44ed1e5f2656059c98a7c0c68466dac90c6fd8bf984846040516109db929190611bc6565b60405180910390a250505050565b60008054906101000a900473ffffffffffffffffffffffffffffffffffffffff1673ffffffffffffffffffffffffffffffffffffffff163373ffffffffffffffffffffffffffffffffffffffff1614610a77576040517f08c379a0000000000000000000000000000000000000000000000000000000008152600401610a6e90611c61565b60405180910390fd5b600073ffffffffffffffffffffffffffffffffffffffff168173ffffffffffffffffffffffffffffffffffffffff1603610ae6576040517f08c379a0000000000000000000000000000000000000000000000000000000008152600401610add90611ccd565b60405180910390fd5b60008060009054906101000a900473ffffffffffffffffffffffffffffffffffffffff169050816000806101000a81548173ffffffffffffffffffffffffffffffffffffffff021916908373ffffffffffffffffffffffffffffffffffffffff1602179055507f7e644d79422f17c01e4894b5f4f588d331ebfa28653d42ae832dc59e38c9798f8183604051610b7d929190611ced565b60405180910390a15050565b60008054906101000a900473ffffffffffffffffffffffffffffffffffffffff1673ffffffffffffffffffffffffffffffffffffffff163373ffffffffffffffffffffffffffffffffffffffff1614610c17576040517f08c379a0000000000000000000000000000000000000000000000000000000008152600401610c0e90611c61565b60405180910390fd5b428411610c59576040517f08c379a0000000000000000000000000000000000000000000000000000000008152600401610c5090611d62565b60405180910390fd5b838311610c9b576040517f08c379a0000000000000000000000000000000000000000000000000000000008152600401610c9290611df4565b60405180910390fd5b8051825114610cdf576040517f08c379a0000000000000000000000000000000000000000000000000000000008152600401610cd690611e86565b60405180910390fd5b6000825111610d23576040517f08c379a0000000000000000000000000000000000000000000000000000000008152600401610d1a90611ef2565b60405180910390fd5b600180541115610db35760006002600060018054610d419190611f12565b815260200190815260200160002090508060040160009054906101000a900460ff161580610d725750428160020154105b610db1576040517f08c379a0000000000000000000000000000000000000000000000000000000008152600401610da890611fb8565b60405180910390fd5b505b6000600260006001548152602001908152602001600020905085816000019081610ddd9190612184565b5084816001018190555083816002018190555060018160040160006101000a81548160ff02191690831515021790555060005b8351811015610edb57816003016040518060600160405280868481518110610e3b57610e3a6118cd565b5b60200260200101518152602001858481518110610e5b57610e5a6118cd565b5b60200260200101518152602001600081525090806001815401808255809150506001900390600052602060002090600302016000909190919091506000820151816000019081610eab9190612184565b506020820151816001019081610ec19190612184565b506040820151816002015550508080600101915050610e10565b506001547fe7a0aae5d733e07e246dea86213a1ac1b0aa8554bde889bb75c12752f44e53d9878787604051610f1293929190612256565b60405180910390a260016000815480929190610f2d90611b6f565b9190505550505050505050565b60015481565b600080600190505b600154811015610fb85760006002600083815260200190815260200160002090508060040160009054906101000a900460ff168015610f8b575080600101544210155b8015610f9b575080600201544211155b15610faa578192505050610fbe565b508080600101915050610f48565b50600090505b90565b6060600080600080600154861061100d576040517f08c379a0000000000000000000000000000000000000000000000000000000008152600401611004906118ad565b60405180910390fd5b60006002600088815260200190815260200160002090508060040160009054906101000a900460ff16611075576040517f08c379a000000000000000000000000000000000000000000000000000000000815260040161106c906118ad565b60405180910390fd5b80600001816001015482600201548360010154421015801561109b575083600201544211155b84600301805490508480546110af906119fa565b80601f01602080910402602001604051908101604052809291908181526020018280546110db906119fa565b80156111285780601f106110fd57610100808354040283529160200191611128565b820191906000526020600020905b81548152906001019060200180831161110b57829003601f168201915b50505050509450955095509550955095505091939590929450565b60008054906101000a900473ffffffffffffffffffffffffffffffffffffffff1681565b6000604051905090565b600080fd5b600080fd5b6000819050919050565b61118e8161117b565b811461119957600080fd5b50565b6000813590506111ab81611185565b92915050565b6000602082840312156111c7576111c6611171565b5b60006111d58482850161119c565b91505092915050565b6111e78161117b565b82525050565b600060208201905061120260008301846111de565b92915050565b6000806040838503121561121f5761121e611171565b5b600061122d8582860161119c565b925050602061123e8582860161119c565b9150509250929050565b600081519050919050565b600082825260208201905092915050565b60005b83811015611282578082015181840152602081019050611267565b60008484015250505050565b6000601f19601f8301169050919050565b60006112aa82611248565b6112b48185611253565b93506112c4818560208601611264565b6112cd8161128e565b840191505092915050565b600060608201905081810360008301526112f2818661129f565b90508181036020830152611306818561129f565b905061131560408301846111de565b949350505050565b60008115159050919050565b6113328161131d565b82525050565b60006080820190508181036000830152611352818761129f565b905061136160208301866111de565b61136e60408301856111de565b61137b6060830184611329565b95945050505050565b6000819050919050565b61139781611384565b81146113a257600080fd5b50565b6000813590506113b48161138e565b92915050565b600080604083850312156113d1576113d0611171565b5b60006113df8582860161119c565b92505060206113f0858286016113a5565b9150509250929050565b600060208201905061140f6000830184611329565b92915050565b60008060006060848603121561142e5761142d611171565b5b600061143c8682870161119c565b935050602061144d8682870161119c565b925050604061145e868287016113a5565b9150509250925092565b600073ffffffffffffffffffffffffffffffffffffffff82169050919050565b600061149382611468565b9050919050565b6114a381611488565b81146114ae57600080fd5b50565b6000813590506114c08161149a565b92915050565b6000602082840312156114dc576114db611171565b5b60006114ea848285016114b1565b91505092915050565b600080fd5b600080fd5b7f4e487b7100000000000000000000000000000000000000000000000000000000600052604160045260246000fd5b6115358261128e565b810181811067ffffffffffffffff82111715611554576115536114fd565b5b80604052505050565b6000611567611167565b9050611573828261152c565b919050565b600067ffffffffffffffff821115611593576115926114fd565b5b61159c8261128e565b9050602081019050919050565b82818337600083830152505050565b60006115cb6115c684611578565b61155d565b9050828152602081018484840111156115e7576115e66114f8565b5b6115f28482856115a9565b509392505050565b600082601f83011261160f5761160e6114f3565b5b813561161f8482602086016115b8565b91505092915050565b600067ffffffffffffffff821115611643576116426114fd565b5b602082029050602081019050919050565b600080fd5b600061166c61166784611628565b61155d565b9050808382526020820190506020840283018581111561168f5761168e611654565b5b835b818110156116d657803567ffffffffffffffff8111156116b4576116b36114f3565b5b8086016116c189826115fa565b85526020850194505050602081019050611691565b5050509392505050565b600082601f8301126116f5576116f46114f3565b5b8135611705848260208601611659565b91505092915050565b600080600080600060a0868803121561172a57611729611171565b5b600086013567ffffffffffffffff81111561174857611747611176565b5b611754888289016115fa565b95505060206117658882890161119c565b94505060406117768882890161119c565b935050606086013567ffffffffffffffff81111561179757611796611176565b5b6117a3888289016116e0565b925050608086013567ffffffffffffffff8111156117c4576117c3611176565b5b6117d0888289016116e0565b9150509295509295909350565b600060a08201905081810360008301526117f7818861129f565b905061180660208301876111de565b61181360408301866111de565b6118206060830185611329565b61182d60808301846111de565b9695505050505050565b61184081611488565b82525050565b600060208201905061185b6000830184611837565b92915050565b7f456c656374696f6e20646f6573206e6f74206578697374000000000000000000600082015250565b6000611897601783611253565b91506118a282611861565b602082019050919050565b600060208201905081810360008301526118c68161188a565b9050919050565b7f4e487b7100000000000000000000000000000000000000000000000000000000600052603260045260246000fd5b7f4e487b7100000000000000000000000000000000000000000000000000000000600052601160045260246000fd5b60006119368261117b565b91506119418361117b565b9250828201905080821115611959576119586118fc565b5b92915050565b7f496e76616c69642063616e64696461746520696e646578000000000000000000600082015250565b6000611995601783611253565b91506119a08261195f565b602082019050919050565b600060208201905081810360008301526119c481611988565b9050919050565b7f4e487b7100000000000000000000000000000000000000000000000000000000600052602260045260246000fd5b60006002820490506001821680611a1257607f821691505b602082108103611a2557611a246119cb565b5b50919050565b7f456c656374696f6e20686173206e6f7420737461727465642079657400000000600082015250565b6000611a61601c83611253565b9150611a6c82611a2b565b602082019050919050565b60006020820190508181036000830152611a9081611a54565b9050919050565b7f456c656374696f6e2068617320656e6465640000000000000000000000000000600082015250565b6000611acd601283611253565b9150611ad882611a97565b602082019050919050565b60006020820190508181036000830152611afc81611ac0565b9050919050565b7f416c726561647920766f74656420776974682074686973204e494e0000000000600082015250565b6000611b39601b83611253565b9150611b4482611b03565b602082019050919050565b60006020820190508181036000830152611b6881611b2c565b9050919050565b6000611b7a8261117b565b91507fffffffffffffffffffffffffffffffffffffffffffffffffffffffffffffffff8203611bac57611bab6118fc565b5b600182019050919050565b611bc081611384565b82525050565b6000604082019050611bdb60008301856111de565b611be86020830184611bb7565b9392505050565b7f4f6e6c792061646d696e2063616e20706572666f726d2074686973206163746960008201527f6f6e000000000000000000000000000000000000000000000000000000000000602082015250565b6000611c4b602283611253565b9150611c5682611bef565b604082019050919050565b60006020820190508181036000830152611c7a81611c3e565b9050919050565b7f496e76616c69642061646d696e20616464726573730000000000000000000000600082015250565b6000611cb7601583611253565b9150611cc282611c81565b602082019050919050565b60006020820190508181036000830152611ce681611caa565b9050919050565b6000604082019050611d026000830185611837565b611d0f6020830184611837565b9392505050565b7f53746172742074696d65206d75737420626520696e2074686520667574757265600082015250565b6000611d4c602083611253565b9150611d5782611d16565b602082019050919050565b60006020820190508181036000830152611d7b81611d3f565b9050919050565b7f456e642074696d65206d7573742062652061667465722073746172742074696d60008201527f6500000000000000000000000000000000000000000000000000000000000000602082015250565b6000611dde602183611253565b9150611de982611d82565b604082019050919050565b60006020820190508181036000830152611e0d81611dd1565b9050919050565b7f43616e646964617465206e616d657320616e642070617274696573206d75737460008201527f2062652073616d65206c656e6774680000000000000000000000000000000000602082015250565b6000611e70602f83611253565b9150611e7b82611e14565b604082019050919050565b60006020820190508181036000830152611e9f81611e63565b9050919050565b7f4d7573742068617665206174206c65617374206f6e652063616e646964617465600082015250565b6000611edc602083611253565b9150611ee782611ea6565b602082019050919050565b60006020820190508181036000830152611f0b81611ecf565b9050919050565b6000611f1d8261117b565b9150611f288361117b565b9250828203905081811115611f4057611f3f6118fc565b5b92915050565b7f43616e6e6f742063726561746520656c656374696f6e207768696c6520616e6f60008201527f7468657220697320616374697665000000000000000000000000000000000000602082015250565b6000611fa2602e83611253565b9150611fad82611f46565b604082019050919050565b60006020820190508181036000830152611fd181611f95565b9050919050565b60008190508160005260206000209050919050565b60006020601f8301049050919050565b600082821b905092915050565b60006008830261203a7fffffffffffffffffffffffffffffffffffffffffffffffffffffffffffffffff82611ffd565b6120448683611ffd565b95508019841693508086168417925050509392505050565b6000819050919050565b600061208161207c6120778461117b565b61205c565b61117b565b9050919050565b6000819050919050565b61209b83612066565b6120af6120a782612088565b84845461200a565b825550505050565b600090565b6120c46120b7565b6120cf818484612092565b505050565b5b818110156120f3576120e86000826120bc565b6001810190506120d5565b5050565b601f8211156121385761210981611fd8565b61211284611fed565b81016020851015612121578190505b61213561212d85611fed565b8301826120d4565b50505b505050565b600082821c905092915050565b600061215b6000198460080261213d565b1980831691505092915050565b6000612174838361214a565b9150826002028217905092915050565b61218d82611248565b67ffffffffffffffff8111156121a6576121a56114fd565b5b6121b082546119fa565b6121bb8282856120f7565b600060209050601f8311600181146121ee57600084156121dc578287015190505b6121e68582612168565b86555061224e565b601f1984166121fc86611fd8565b60005b82811015612224578489015182556001820191506020850194506020810190506121ff565b86831015612241578489015161223d601f89168261214a565b8355505b6001600288020188555050505b505050505050565b60006060820190508181036000830152612270818661129f565b905061227f60208301856111de565b61228c60408301846111de565b94935050505056fea26469706673582212202c85b23fe3dd5edd5018682cd90ff15f5efbc075a49a9459fb3690fc95a6061464736f6c634300081c0033",
  "linkReferences": {},
  "deployedLinkReferences": {}
}